{
  "contractName": "CoolGuyToken",
  "abi": [
    {
      "constant": true,
      "inputs": [],
      "name": "totalSupply",
      "outputs": [
        {
          "name": "",
          "type": "uint256"
        }
      ],
      "payable": false,
      "stateMutability": "view",
      "type": "function"
    },
    {
      "inputs": [],
      "payable": false,
      "stateMutability": "nonpayable",
      "type": "constructor"
    }
  ],
  "bytecode": "0x608060405234801561001057600080fd5b50620f4240600081905550609e806100296000396000f300608060405260043610603f576000357c0100000000000000000000000000000000000000000000000000000000900463ffffffff16806318160ddd146044575b600080fd5b348015604f57600080fd5b506056606c565b6040518082815260200191505060405180910390f35b600054815600a165627a7a7230582046cfc05ad8413d67423cf6bc5351fda5a025edd6079843d2a66f4d1fda9aaa1f0029",
  "source": "pragma solidity ^0.4.2;\r\n\r\n/**\r\n * The contractName contract does this and that...\r\n */\r\ncontract CoolGuyToken {\r\n\t//Constructor\r\n\t// Set the total number of tokens\r\n\t// Read the total number of tokens\r\n\tuint256 public totalSupply;\r\n\r\n\tfunction CoolGuyToken () public {\r\n\t\ttotalSupply = 1000000;\r\n\t}\r\n\t\r\n}\r\n",
  "sourcePath": "c:\\Projects\\ethereum\\token_sale\\contracts\\CoolGuyToken.sol",
  "compiler": {
    "name": "solc",
    "version": "0.4.24+commit.e67f0147.Emscripten.clang"
  },
  "schemaVersion": "2.0.1",
  "updatedAt": "2018-08-30T17:46:02.419Z"
}